:100000000C942A000C9447000C9447000C94470071
:100010000C9447000C9447000C9447000C94470044
:100020000C9447000C94A2010C9447000C944700D8
:100030000C9447000C9447000C9447000C94470024
:100040000C9447000C9447000C9447000C94470014
:100050000C94470011241FBECFE5D8E0DEBFCDBF12
:1000600011E0A0E6B0E0E2E9F7E002C005900D92F1
:10007000A232B107D9F721E0A2E2B1E001C01D929E
:10008000AD34B207E1F70E9471030C94C7030C94DE
:10009000000097B1982B97B9369A3699FECF84B164
:1000A00095B10895883014F498E001C090E195BBB3
:1000B00095B38770892B85BB68BB72BB0895EF929F
:1000C000FF920F931F93CF93DF9320E0809149011C
:1000D000281764F4E22FEE0FFF0BEE5DFE4F8081D8
:1000E00091819068918380832F5FF0CF233064F4F7
:1000F000E22FEE0FFF0BEE5DFE4F808191819F7727
:10010000918380832F5FF2CFC0E0D0E0F12C0FE02D
:1001100010E034E6E32E8C2F20E030E0FE01EE0FFD
:10012000FF1FEE5DFE4F40815181022E02C05595AA
:1001300047950A94E2F740FDF3942F5F3F4F20313B
:10014000310589F7F801EC1BFD0BEE0FFF1FEE5D8B
:10015000FE4F608171810E9452008E2D8A95F1F7C9
:100160002196C031D105B9F6209149018F2D9927EB
:1001700087FD9095821B910927FD9395049744F480
:1001800080914801823024F081E08093420102C0D6
:1001900010924201DF91CF911F910F91FF90EF904C
:1001A00008950F931F93CF93DF93843034F0DF9142
:1001B000CF911F910F910C945F0090E28902800112
:1001C000112400561F4FC0E0D0E0FE01EE0FFF1FCC
:1001D000E00FF11F608171818C2F0E94520089EF26
:1001E00090E00197F1F700C000002196C031D105E1
:1001F00061F7DF91CF911F910F9108950F931F9396
:10020000CF93DF938B0120914701820F911D27FD32
:100210009A9562E070E00E949F0380934701C8E7CF
:10022000D0E0809147018E5F0E94D10021972097F6
:10023000C1F70130110509F049C080E090E0FC01F0
:10024000EE0FFF1FEE5DFE4F11821082019680318E
:100250009105A9F720E030E0C0E1D0E0A1E0B0E0F6
:10026000BE01621B730BCD0102C0880F991F6A95F6
:10027000E2F7BC0180E090E040914701F90150E1D4
:100280004502E00DF11D1124EE0FFF1FE05AFF4F54
:1002900040815181082E02C0559547950A94E2F796
:1002A00040FF0BC0FC01EE0FFF1FEE5DFE4F4081D3
:1002B0005181462B572B5183408301968031910504
:1002C000D9F62F5F3F4F2031310551F681E0809301
:1002D000460180934B0198E090934A018093480136
:1002E00086E080934C0189E08093450120914C0188
:1002F00080914501821764F0E22FEE0FFF0BEE5D57
:10030000FE4F808191818160918380832F5FF0CF48
:10031000E0914A01EE0FFF0BEE5DFE4F208131812F
:100320004091480181E090E002C0880F991F4A95F2
:10033000E2F7822B932B91838083DF91CF911F91E2
:100340000F9108951F920F920FB60F9211241F93D1
:100350002F933F934F935F936F937F938F939F93CD
:10036000AF93BF93CF93DF93EF93FF939D99A5C175
:10037000809143018F5F8093430190914301E0910D
:100380004701FF27E7FDF095E05EFE4F808198135F
:1003900094C113E0C0E0D0E080E00E944900C80FA3
:1003A000D91F1150C9F7CE016AE570E00E949F0382
:1003B0006A5071096230710534F06F3071052CF0AC
:1003C0006EE070E002C062E070E020914C0180912C
:1003D0004501821764F0E22FEE0FFF0BEE5DFE4F3A
:1003E000808191818E7F918380832F5FF0CF8EEF0C
:1003F000860F80934C016F5F6093450120914C0103
:1004000080914501821764F0E22FEE0FFF0BEE5D45
:10041000FE4F808191818160918380832F5FF0CF37
:1004200081E090E0109243016091460170914B0190
:1004300020914A01E0914601E20F3091480120915C
:100440004B01230FE03180F4AE2FAA0FBB0BAE5D42
:10045000BE4F4D915C913091480102C05595479532
:100460003A95E2F740FF05C030914601319530934F
:1004700046012F3080F4A0914A01AA0FBB0BAE5D5C
:10048000BE4F4D915C91022E02C0559547950A943E
:10049000E2F740FF0EC130914B01319530934B0193
:1004A000E03118F52F3008F5AE2FAA0FBB0BAE5D6B
:1004B000BE4F4D915C91022E02C0559547950A940E
:1004C000E2F740FF12C03091460163130EC0309135
:1004D0004B0173130AC030914601319530934601A8
:1004E00030914B01319530934B01309146016313AC
:1004F00005C030914B01731709F43FC0E031C0F4DF
:10050000AE2FAA0FBB0BAE5DBE4F4D915C91119704
:1005100060914801EC0102C0CC0FDD1F6A95E2F743
:10052000BE01609570954623572311965C934E93B8
:100530002F3018F5A0914A01AA0FBB0BAE5DBE4F3C
:100540004D915C911197BC0102C0660F771F2A95EF
:10055000E2F79B01209530954223532311965C933B
:100560004E93E03154F4EE0FFF0BEE5DFE4F4081F1
:100570005181422353235183408320914A01E091CA
:100580004601FF27E7FDF095E20FF11D27FDFA95E3
:10059000EE0FFF1FEE5DFE4F20813181409148013B
:1005A00050914B01450F02C0359527954A95E2F7CA
:1005B00020FF2FC020914A01E0914601FF27E7FD6F
:1005C000F095E20FF11D27FDFA95EE0FFF1FEE5D8E
:1005D000FE4F408151812091480130914B01230F02
:1005E000DC0102C0AA0FBB1F2A95E2F79D012095EE
:1005F0003095242335233183208320914601219592
:100600002093460120914B01219520934B0161E0FD
:1006100001C060E0E0914A01EE0FFF0BEE5DFE4F7E
:100620004081518120914801EC0102C0CC0FDD1FB7
:100630002A95E2F79E0120953095242335233183B6
:10064000208330914A0120914601230F20934A01D3
:100650003091480120914B01230F20934801E091F4
:100660004A01EE0FFF0BEE5DFE4F4081518120915C
:100670004801DC0102C0AA0FBB1F2A95E2F79D01C9
:10068000242B352B318320836111CCCE80914801FE
:10069000811113C080914901811104C081E00E9441
:1006A000D100FCCF60E070E080E090E00E94FE00AE
:1006B00004C0E03108F4F8CE18CFFF91EF91DF913C
:1006C000CF91BF91AF919F918F917F916F915F91EA
:1006D0004F913F912F911F910F900FBE0F901F9040
:1006E00018958FEF87BB9FED94BB81BB1FBC81E04A
:1006F0008EBD84E089BF80E487B987E886B980E849
:1007000084BF84BF109247011092430183E080931D
:10071000490161E070E080E090E00E94FE00789482
:10072000109242010E945F00809142018130C1F726
:1007300061E070E081E090E00E94FE00F1CF97FB65
:10074000072E16F4009407D077FD09D00E94B3035A
:1007500007FC05D03EF4909581959F4F08957095C4
:1007600061957F4F0895AA1BBB1B51E107C0AA1FCB
:10077000BB1FA617B70710F0A61BB70B881F991F42
:100780005A95A9F780959095BC01CD010895F894EC
:02079000FFCF99
:100792000000000000000000FFFFFE7FFC3FF81F8A
:1007A200F00FE00700000000000000000000000061
:1007B20000000000F00F00000FF00000F00F00003A
:1007C200CFF300000000F00F000000000000000066
:1007D2000000000004007C000000041B7C04001BDD
:1007E2003C00500E3C11001F280054007C00000009
:1007F2002C1550157C1F0000541F54087C1F00004C
:10080200780F0C14780F000038174411380E0000CE
:100812000001001F00000015001F0000021E7E03E1
:10082200221E00000015001F00000001001F000032
:100832000001001F00000015001F0000741E540379
:100842005C1E00000015001F00000001001F0000D8
:020852000202A0
:00000001FF
